{
  "contractName": "Registration",
  "abi": [
    {
      "constant": true,
      "inputs": [
        {
          "name": "",
          "type": "bytes32"
        }
      ],
      "name": "userData",
      "outputs": [
        {
          "name": "userEmail",
          "type": "bytes32"
        },
        {
          "name": "userPassword",
          "type": "bytes32"
        },
        {
          "name": "userEthAddr",
          "type": "address"
        },
        {
          "name": "userRole",
          "type": "uint256"
        }
      ],
      "payable": false,
      "stateMutability": "view",
      "type": "function"
    },
    {
      "constant": false,
      "inputs": [
        {
          "name": "hash_email",
          "type": "bytes32"
        },
        {
          "name": "hash_pass",
          "type": "bytes32"
        },
        {
          "name": "hash_ethAddr",
          "type": "address"
        },
        {
          "name": "role",
          "type": "uint256"
        }
      ],
      "name": "addUserData",
      "outputs": [],
      "payable": false,
      "stateMutability": "nonpayable",
      "type": "function"
    },
    {
      "constant": true,
      "inputs": [
        {
          "name": "email",
          "type": "bytes32"
        }
      ],
      "name": "getData",
      "outputs": [
        {
          "name": "",
          "type": "bytes32"
        },
        {
          "name": "",
          "type": "bytes32"
        },
        {
          "name": "",
          "type": "address"
        },
        {
          "name": "",
          "type": "uint256"
        }
      ],
      "payable": false,
      "stateMutability": "view",
      "type": "function"
    }
  ],
  "bytecode": "0x608060405234801561001057600080fd5b5061043f806100206000396000f300608060405260043610610057576000357c0100000000000000000000000000000000000000000000000000000000900463ffffffff16806354f6127f1461005c578063963463a2146100f2578063ea67460b1461015b575b600080fd5b34801561006857600080fd5b5061008b60048036038101908080356000191690602001909291905050506101f1565b60405180856000191660001916815260200184600019166000191681526020018373ffffffffffffffffffffffffffffffffffffffff1673ffffffffffffffffffffffffffffffffffffffff16815260200182815260200194505050505060405180910390f35b3480156100fe57600080fd5b5061015960048036038101908080356000191690602001909291908035600019169060200190929190803573ffffffffffffffffffffffffffffffffffffffff1690602001909291908035906020019092919050505061029e565b005b34801561016757600080fd5b5061018a600480360381019080803560001916906020019092919050505061037e565b60405180856000191660001916815260200184600019166000191681526020018373ffffffffffffffffffffffffffffffffffffffff1673ffffffffffffffffffffffffffffffffffffffff16815260200182815260200194505050505060405180910390f35b600080600080600080866000191660001916815260200190815260200160002060000154600080876000191660001916815260200190815260200160002060010154600080886000191660001916815260200190815260200160002060020160009054906101000a900473ffffffffffffffffffffffffffffffffffffffff1660008089600019166000191681526020019081526020016000206003015493509350935093509193509193565b6102a66103ce565b60806040519081016040528086600019168152602001856000191681526020018473ffffffffffffffffffffffffffffffffffffffff168152602001838152509050806000808760001916600019168152602001908152602001600020600082015181600001906000191690556020820151816001019060001916905560408201518160020160006101000a81548173ffffffffffffffffffffffffffffffffffffffff021916908373ffffffffffffffffffffffffffffffffffffffff160217905550606082015181600301559050505050505050565b60006020528060005260406000206000915090508060000154908060010154908060020160009054906101000a900473ffffffffffffffffffffffffffffffffffffffff16908060030154905084565b6080604051908101604052806000801916815260200160008019168152602001600073ffffffffffffffffffffffffffffffffffffffff1681526020016000815250905600a165627a7a72305820efae02623dfac4b04d442364d2d76071db1a3ce4c5cc9fe8d0ae7bb61b24c90d0029",
  "source": "pragma solidity ^0.4.4;\r\n\r\ncontract Registration{\r\n    \r\n    struct dataUser{\r\n        bytes32 userEmail;\r\n        bytes32 userPassword;\r\n        address userEthAddr;\r\n        uint userRole;\r\n    } \r\n    \r\n    mapping (bytes32 => dataUser) public userData;\r\n    \r\n    function addUserData(bytes32 hash_email, bytes32 hash_pass, address hash_ethAddr, uint role) public {\r\n        dataUser memory data_user = dataUser(hash_email, hash_pass, hash_ethAddr, role);\r\n        userData[hash_email] = data_user;\r\n    }\r\n    \r\n    function getData (bytes32 email) public view returns(bytes32, bytes32, address, uint) {\r\n\t    return (userData[email].userEmail, userData[email].userPassword, userData[email].userEthAddr, userData[email].userRole);\r\n\t}\r\n    \r\n    \r\n}",
  "sourcePath": "D:\\2fablockchain\\solidity\\contracts\\Registration.sol",
  "compiler": {
    "name": "solc",
    "version": "0.4.24+commit.e67f0147.Emscripten.clang"
  },
  "schemaVersion": "2.0.1",
  "updatedAt": "2020-04-05T06:59:06.139Z"
}