{
  "contractName": "Tufa",
  "abi": [
    {
      "constant": false,
      "inputs": [
        {
          "name": "authenticationToken",
          "type": "uint256"
        }
      ],
      "name": "authenticate",
      "outputs": [],
      "payable": false,
      "stateMutability": "nonpayable",
      "type": "function"
    },
    {
      "constant": true,
      "inputs": [
        {
          "name": "prover",
          "type": "address"
        }
      ],
      "name": "getAuthenticationToken",
      "outputs": [
        {
          "name": "",
          "type": "uint256"
        }
      ],
      "payable": false,
      "stateMutability": "view",
      "type": "function"
    }
  ],
  "bytecode": "0x608060405234801561001057600080fd5b506101a3806100206000396000f30060806040526004361061004c576000357c0100000000000000000000000000000000000000000000000000000000900463ffffffff168063195ad926146100515780636d7482071461007e575b600080fd5b34801561005d57600080fd5b5061007c600480360381019080803590602001909291905050506100d5565b005b34801561008a57600080fd5b506100bf600480360381019080803573ffffffffffffffffffffffffffffffffffffffff16906020019092919050505061012f565b6040518082815260200191505060405180910390f35b600080821115156100e557600080fd5b339050816000808373ffffffffffffffffffffffffffffffffffffffff1673ffffffffffffffffffffffffffffffffffffffff168152602001908152602001600020819055505050565b60008060008373ffffffffffffffffffffffffffffffffffffffff1673ffffffffffffffffffffffffffffffffffffffff1681526020019081526020016000205490509190505600a165627a7a723058209d0bd6b2208188305bc163f132d7c04f47f9036136e5e42fe9fa8619ee9541440029",
  "source": "pragma solidity ^0.4.4;\r\n\r\ncontract Tufa {\r\n\r\n\tmapping(address => uint) authentications;\r\n\r\n\tfunction authenticate(uint authenticationToken) {\r\n\t\trequire(authenticationToken > 0);\r\n\t\taddress prover = msg.sender;\r\n\t\tauthentications[prover] = authenticationToken;\r\n\t}\r\n\r\n  function getAuthenticationToken(address prover) constant returns (uint) {\r\n\treturn authentications[prover];\r\n  }\r\n}\r\n",
  "sourcePath": "D:\\2fablockchain\\solidity\\contracts\\Tufa.sol",
  "compiler": {
    "name": "solc",
    "version": "0.4.24+commit.e67f0147.Emscripten.clang"
  },
  "schemaVersion": "2.0.1",
  "updatedAt": "2020-04-05T06:59:06.132Z"
}